:060000000A128A11B52F5F
:100F30003F3406345B344F3466346D347D340734CB
:100F4000FF3467347E088A007F0882000A128A1103
:100F5000A2270A128A118000840A04087D06031958
:100F60000034FF0A0319FE0AA62FF301F4018313CC
:100F70002A30FD000730FE009830FF00203084004A
:100F80000A128A11A6270A128A1183010A128A11EB
:100F9000C92F831603138601831203138601D02FF2
:100FA0007308203E84008313000883120313860015
:100FB0001A30F2005E30F1008630F000F00BDE2FC8
:100FC000F10BDE2FF20BDE2F64000130F307031864
:100FD000F40A0030F4077408803AFF0080307F0282
:100FE000031DF42F0A307302031CF72FF82FD02FA4
:100FF000F301F401D02FD02FD02F0A128A1100282C
:02400E003A3F37
:00000001FF
